{
  "contractName": "Canvas",
  "abi": [
    {
      "constant": true,
      "inputs": [],
      "name": "genesis_block",
      "outputs": [
        {
          "name": "",
          "type": "uint256"
        }
      ],
      "payable": false,
      "stateMutability": "view",
      "type": "function"
    },
    {
      "constant": true,
      "inputs": [
        {
          "name": "",
          "type": "int256"
        },
        {
          "name": "",
          "type": "int256"
        }
      ],
      "name": "pixels",
      "outputs": [
        {
          "name": "signature",
          "type": "bytes32"
        },
        {
          "name": "floor_price",
          "type": "uint256"
        },
        {
          "name": "owner",
          "type": "address"
        }
      ],
      "payable": false,
      "stateMutability": "view",
      "type": "function"
    },
    {
      "constant": true,
      "inputs": [],
      "name": "last_threshold_size",
      "outputs": [
        {
          "name": "",
          "type": "uint256"
        }
      ],
      "payable": false,
      "stateMutability": "view",
      "type": "function"
    },
    {
      "constant": true,
      "inputs": [],
      "name": "last_canvas_size_index",
      "outputs": [
        {
          "name": "",
          "type": "uint256"
        }
      ],
      "payable": false,
      "stateMutability": "view",
      "type": "function"
    },
    {
      "constant": true,
      "inputs": [
        {
          "name": "",
          "type": "uint256"
        }
      ],
      "name": "boundaries_thresholds",
      "outputs": [
        {
          "name": "threshold",
          "type": "uint256"
        },
        {
          "name": "blocks_per_pixel",
          "type": "uint256"
        }
      ],
      "payable": false,
      "stateMutability": "view",
      "type": "function"
    },
    {
      "constant": false,
      "inputs": [
        {
          "name": "_x",
          "type": "int256"
        },
        {
          "name": "_y",
          "type": "int256"
        },
        {
          "name": "_color",
          "type": "bytes3[]"
        },
        {
          "name": "_signature",
          "type": "bytes32"
        }
      ],
      "name": "Paint",
      "outputs": [],
      "payable": true,
      "stateMutability": "payable",
      "type": "function"
    },
    {
      "constant": true,
      "inputs": [],
      "name": "last_threshold",
      "outputs": [
        {
          "name": "",
          "type": "uint256"
        }
      ],
      "payable": false,
      "stateMutability": "view",
      "type": "function"
    },
    {
      "constant": false,
      "inputs": [],
      "name": "Kill",
      "outputs": [],
      "payable": false,
      "stateMutability": "nonpayable",
      "type": "function"
    },
    {
      "anonymous": false,
      "inputs": [
        {
          "indexed": false,
          "name": "",
          "type": "address"
        },
        {
          "indexed": false,
          "name": "",
          "type": "address"
        },
        {
          "indexed": false,
          "name": "",
          "type": "uint256"
        }
      ],
      "name": "PixelSold",
      "type": "event"
    },
    {
      "anonymous": false,
      "inputs": [
        {
          "indexed": false,
          "name": "",
          "type": "int256"
        },
        {
          "indexed": false,
          "name": "",
          "type": "int256"
        },
        {
          "indexed": false,
          "name": "",
          "type": "bytes3[]"
        },
        {
          "indexed": false,
          "name": "",
          "type": "bytes32"
        },
        {
          "indexed": false,
          "name": "",
          "type": "address"
        }
      ],
      "name": "PixelPainted",
      "type": "event"
    },
    {
      "anonymous": false,
      "inputs": [
        {
          "indexed": false,
          "name": "",
          "type": "int256"
        }
      ],
      "name": "CurrentBoundary",
      "type": "event"
    }
  ],
  "bytecode": "0x606060405261000c610416565b610014610444565b6000336000806101000a81548173ffffffffffffffffffffffffffffffffffffffff021916908373ffffffffffffffffffffffffffffffffffffffff1602179055506000600381905550436004819055506103a0604051908101604052806204028062ffffff168152602001620784be62ffffff168152602001620a926262ffffff168152602001620d3e8062ffffff168152602001620f980262ffffff1681526020016211a7c662ffffff168152602001621372e062ffffff168152602001621505fa62ffffff1681526020016216665262ffffff16815260200162179a5262ffffff1681526020016218a7da62ffffff1681526020016219930262ffffff168152602001621a623262ffffff168152602001621b14b262ffffff168152602001621bb0ca62ffffff168152602001621c394462ffffff168152602001621caf6462ffffff168152602001621d16c062ffffff168152602001621d6f2e62ffffff168152602001621dc38e62ffffff168152602001621e052e62ffffff168152602001621e450262ffffff168152602001621e809262ffffff168152602001621eb4b262ffffff168152602001621edd3a62ffffff168152602001621f0c8262ffffff168152602001621f281862ffffff168152602001621f6dd262ffffff168152602001621fccb862ffffff1681525092506103a06040519081016040528061010061ffff16815260200161012c61ffff16815260200161015c61ffff16815260200161019461ffff1681526020016101dc61ffff16815260200161022c61ffff16815260200161028461ffff1681526020016102f461ffff16815260200161037061ffff16815260200161040061ffff1681526020016104b061ffff16815260200161057861ffff16815260200161066061ffff16815260200161077061ffff1681526020016108ac61ffff168152602001610a1c61ffff168152602001610bd061ffff168152602001610dc861ffff16815260200161101461ffff1681526020016112c061ffff1681526020016115e061ffff16815260200161198861ffff168152602001611dc861ffff1681526020016122c061ffff16815260200161288861ffff168152602001612f4861ffff16815260200161372c61ffff1681526020016145ba61ffff168152602001615ee661ffff168152509150600090505b601d81101561040e57600580548060010182816103939190610471565b9160005260206000209060020201600060408051908101604052808786601d811015156103bc57fe5b602002015162ffffff1681526020018686601d811015156103d957fe5b602002015161ffff16815250909190915060008201518160000155602082015181600101555050508080600101915050610376565b5050506104d2565b6103a060405190810160405280601d905b600062ffffff168152602001906001900390816104275790505090565b6103a060405190810160405280601d905b600061ffff168152602001906001900390816104555790505090565b81548183558181151161049e5760020281600202836000526020600020918201910161049d91906104a3565b5b505050565b6104cf91905b808211156104cb576000808201600090556001820160009055506002016104a9565b5090565b90565b610910806104e16000396000f30060606040526004361061008e576000357c0100000000000000000000000000000000000000000000000000000000900463ffffffff168063274a533c146100935780632bcf8fc0146100bc5780632fb2856b1461013e5780633447c2911461016757806366612fda1461019057806381c6fa08146101ce578063954738731461023c578063be26733c14610265575b600080fd5b341561009e57600080fd5b6100a661027a565b6040518082815260200191505060405180910390f35b34156100c757600080fd5b6100e66004808035906020019091908035906020019091905050610280565b6040518084600019166000191681526020018381526020018273ffffffffffffffffffffffffffffffffffffffff1673ffffffffffffffffffffffffffffffffffffffff168152602001935050505060405180910390f35b341561014957600080fd5b6101516102d7565b6040518082815260200191505060405180910390f35b341561017257600080fd5b61017a6102dd565b6040518082815260200191505060405180910390f35b341561019b57600080fd5b6101b160048080359060200190919050506102e3565b604051808381526020018281526020019250505060405180910390f35b61023a60048080359060200190919080359060200190919080359060200190820180359060200190808060200260200160405190810160405280939291908181526020018383602002808284378201915050505050509190803560001916906020019091905050610316565b005b341561024757600080fd5b61024f610685565b6040518082815260200191505060405180910390f35b341561027057600080fd5b61027861068b565b005b60045481565b6006602052816000526040600020602052806000526040600020600091509150508060010154908060020154908060030160009054906101000a900473ffffffffffffffffffffffffffffffffffffffff16905083565b60025481565b60035481565b6005818154811015156102f257fe5b90600052602060002090600202016000915090508060000154908060010154905082565b6000806000610323610720565b92507fbb71526ffdba58cd3dd24ffa9c0bd3a735b9d17eaefaf3362f42ff476a0314fb836040518082815260200191505060405180910390a1600660008881526020019081526020016000206000878152602001908152602001600020915081600201543411151561039457600080fd5b848260000190805190602001906103ac9291906107e9565b50838260010181600019169055503482600201819055507fb800b0f64c8c5a1befb7749179ea32fa0b662ec6554d3f998b7b9b706e3b43038787878733604051808681526020018581526020018060200184600019166000191681526020018373ffffffffffffffffffffffffffffffffffffffff1673ffffffffffffffffffffffffffffffffffffffff168152602001828103825285818151815260200191508051906020019060200280838360005b8381101561047857808201518184015260208101905061045d565b50505050905001965050505050505060405180910390a1600073ffffffffffffffffffffffffffffffffffffffff168260030160009054906101000a900473ffffffffffffffffffffffffffffffffffffffff1673ffffffffffffffffffffffffffffffffffffffff1614610511578160030160009054906101000a900473ffffffffffffffffffffffffffffffffffffffff16610534565b6000809054906101000a900473ffffffffffffffffffffffffffffffffffffffff165b9050338260030160006101000a81548173ffffffffffffffffffffffffffffffffffffffff021916908373ffffffffffffffffffffffffffffffffffffffff1602179055508073ffffffffffffffffffffffffffffffffffffffff166108fc349081150290604051600060405180830381858888f1935050505015156105b957600080fd5b7f3e308ff159ce24591005d72455345b0d4286d901381d13a6f2f02f59242f8989818360030160009054906101000a900473ffffffffffffffffffffffffffffffffffffffff1634604051808473ffffffffffffffffffffffffffffffffffffffff1673ffffffffffffffffffffffffffffffffffffffff1681526020018373ffffffffffffffffffffffffffffffffffffffff1673ffffffffffffffffffffffffffffffffffffffff168152602001828152602001935050505060405180910390a150505050505050565b60015481565b6000809054906101000a900473ffffffffffffffffffffffffffffffffffffffff1673ffffffffffffffffffffffffffffffffffffffff163373ffffffffffffffffffffffffffffffffffffffff161415156106e657600080fd5b6000809054906101000a900473ffffffffffffffffffffffffffffffffffffffff1673ffffffffffffffffffffffffffffffffffffffff16ff5b6000806000806004544303925060035491505b6005805490508210156107d15760058281548110151561074f57fe5b9060005260206000209060020201905082816000015410151561079257816003819055508060010154600154840381151561078657fe5b046002540193506107e3565b806000015460018190555080600101546001548260000154038115156107b457fe5b046002600082825401925050819055508180600101925050610733565b60058054905060038190555061100093505b50505090565b82805482825590600052602060002090600901600a900481019282156108a15791602002820160005b8382111561087057835183826101000a81548162ffffff02191690837d010000000000000000000000000000000000000000000000000000000000900402179055509260200192600301602081600201049283019260010302610812565b801561089f5782816101000a81549062ffffff0219169055600301602081600201049283019260010302610870565b505b5090506108ae91906108b2565b5090565b6108e191905b808211156108dd57600081816101000a81549062ffffff0219169055506001016108b8565b5090565b905600a165627a7a7230582043e343d7599668f3727f327f6d3acd419a9e9fbaafda393771650c2d19696f810029",
  "source": "pragma solidity ^0.4.18;\r\nimport \"./UsingMortal.sol\";\r\nimport \"./UsingCanvasBoundaries.sol\";\r\n\r\ncontract Canvas is usingMortal, usingCanvasBoundaries {\r\n    struct Pixel {\r\n        bytes3[] color;\r\n        bytes32 signature;\r\n        uint floor_price;\r\n        address owner;\r\n    }\r\n    \r\n    mapping(int => mapping(int => Pixel)) public pixels;\r\n    \r\n    event PixelSold(address, address, uint);\r\n    event PixelPainted(int, int, bytes3[], bytes32, address);\r\n    event CurrentBoundary(int);\r\n    \r\n\tfunction Paint(int _x, int _y, bytes3[] _color, bytes32 _signature) public payable {\r\n\t    int b = int(boundary());\r\n\t    CurrentBoundary(b);\r\n\t    //require(_x >= -b && _x <= b && _y >= -b && _y <= b);\r\n\t    Pixel storage pixel = pixels[_x][_y];\r\n\t    require(msg.value > pixel.floor_price);\r\n\t    pixel.color = _color;\r\n\t    pixel.signature = _signature;\r\n\t    pixel.floor_price = msg.value;\r\n\t    PixelPainted(_x, _y, _color, _signature, msg.sender);\r\n\t    address old_owner = pixel.owner == address(0) ? owner : pixel.owner; //nuevos pixeles son propiedad mia\r\n\t    pixel.owner = msg.sender;\r\n\t    old_owner.transfer(msg.value);\r\n\t    PixelSold(old_owner, pixel.owner, msg.value);\r\n\t}\r\n}",
  "sourcePath": "D:\\dev\\canvas\\contracts\\Canvas.sol",
  "compiler": {
    "name": "solc",
    "version": "0.4.18+commit.9cf6e910.Emscripten.clang"
  },
  "schemaVersion": "1.0.1",
  "updatedAt": "2017-12-30T18:50:06.270Z"
}