{
  "contractName": "Canvas",
  "abi": [
    {
      "constant": true,
      "inputs": [],
      "name": "genesis_block",
      "outputs": [
        {
          "name": "",
          "type": "uint256"
        }
      ],
      "payable": false,
      "stateMutability": "view",
      "type": "function"
    },
    {
      "constant": true,
      "inputs": [
        {
          "name": "",
          "type": "int256"
        },
        {
          "name": "",
          "type": "int256"
        }
      ],
      "name": "pixels",
      "outputs": [
        {
          "name": "signature",
          "type": "bytes32"
        },
        {
          "name": "floor_price",
          "type": "uint256"
        },
        {
          "name": "owner",
          "type": "address"
        }
      ],
      "payable": false,
      "stateMutability": "view",
      "type": "function"
    },
    {
      "constant": true,
      "inputs": [],
      "name": "last_threshold_size",
      "outputs": [
        {
          "name": "",
          "type": "uint256"
        }
      ],
      "payable": false,
      "stateMutability": "view",
      "type": "function"
    },
    {
      "constant": true,
      "inputs": [],
      "name": "last_canvas_size_index",
      "outputs": [
        {
          "name": "",
          "type": "uint256"
        }
      ],
      "payable": false,
      "stateMutability": "view",
      "type": "function"
    },
    {
      "constant": true,
      "inputs": [],
      "name": "min_bound",
      "outputs": [
        {
          "name": "",
          "type": "int256"
        }
      ],
      "payable": false,
      "stateMutability": "view",
      "type": "function"
    },
    {
      "constant": true,
      "inputs": [],
      "name": "max_bound",
      "outputs": [
        {
          "name": "",
          "type": "int256"
        }
      ],
      "payable": false,
      "stateMutability": "view",
      "type": "function"
    },
    {
      "constant": true,
      "inputs": [
        {
          "name": "",
          "type": "uint256"
        }
      ],
      "name": "boundaries_thresholds",
      "outputs": [
        {
          "name": "threshold",
          "type": "uint256"
        },
        {
          "name": "blocks_per_pixel",
          "type": "uint256"
        }
      ],
      "payable": false,
      "stateMutability": "view",
      "type": "function"
    },
    {
      "constant": true,
      "inputs": [
        {
          "name": "_x",
          "type": "int256"
        },
        {
          "name": "_y",
          "type": "int256"
        }
      ],
      "name": "GetPixel",
      "outputs": [
        {
          "name": "",
          "type": "uint256"
        },
        {
          "name": "",
          "type": "address"
        },
        {
          "name": "",
          "type": "bytes32"
        },
        {
          "name": "",
          "type": "bytes3[]"
        }
      ],
      "payable": false,
      "stateMutability": "view",
      "type": "function"
    },
    {
      "constant": true,
      "inputs": [
        {
          "name": "_min_x",
          "type": "int256"
        },
        {
          "name": "_max_x",
          "type": "int256"
        },
        {
          "name": "_min_y",
          "type": "int256"
        },
        {
          "name": "_max_y",
          "type": "int256"
        }
      ],
      "name": "GetPixels",
      "outputs": [
        {
          "components": [
            {
              "name": "color",
              "type": "bytes3[]"
            },
            {
              "name": "signature",
              "type": "bytes32"
            },
            {
              "name": "floor_price",
              "type": "uint256"
            },
            {
              "name": "owner",
              "type": "address"
            }
          ],
          "name": "",
          "type": "tuple[]"
        }
      ],
      "payable": false,
      "stateMutability": "view",
      "type": "function"
    },
    {
      "constant": false,
      "inputs": [
        {
          "name": "_x",
          "type": "int256"
        },
        {
          "name": "_y",
          "type": "int256"
        },
        {
          "name": "_color",
          "type": "bytes3[]"
        },
        {
          "name": "_signature",
          "type": "bytes32"
        }
      ],
      "name": "Paint",
      "outputs": [],
      "payable": true,
      "stateMutability": "payable",
      "type": "function"
    },
    {
      "constant": true,
      "inputs": [],
      "name": "last_threshold",
      "outputs": [
        {
          "name": "",
          "type": "uint256"
        }
      ],
      "payable": false,
      "stateMutability": "view",
      "type": "function"
    },
    {
      "constant": false,
      "inputs": [],
      "name": "Kill",
      "outputs": [],
      "payable": false,
      "stateMutability": "nonpayable",
      "type": "function"
    },
    {
      "anonymous": false,
      "inputs": [
        {
          "indexed": false,
          "name": "old_owner",
          "type": "address"
        },
        {
          "indexed": false,
          "name": "new_owner",
          "type": "address"
        },
        {
          "indexed": false,
          "name": "price",
          "type": "uint256"
        }
      ],
      "name": "PixelSold",
      "type": "event"
    },
    {
      "anonymous": false,
      "inputs": [
        {
          "indexed": false,
          "name": "x",
          "type": "int256"
        },
        {
          "indexed": false,
          "name": "y",
          "type": "int256"
        },
        {
          "indexed": false,
          "name": "new_color",
          "type": "bytes3[]"
        },
        {
          "indexed": false,
          "name": "new_signature",
          "type": "bytes32"
        },
        {
          "indexed": false,
          "name": "new_owner",
          "type": "address"
        }
      ],
      "name": "PixelPainted",
      "type": "event"
    },
    {
      "anonymous": false,
      "inputs": [
        {
          "indexed": false,
          "name": "current_min",
          "type": "int256"
        },
        {
          "indexed": false,
          "name": "current_max",
          "type": "int256"
        }
      ],
      "name": "CurrentBoundary",
      "type": "event"
    }
  ],
  "bytecode": "0x60606040526200000e62000421565b6200001862000450565b6000336000806101000a81548173ffffffffffffffffffffffffffffffffffffffff021916908373ffffffffffffffffffffffffffffffffffffffff1602179055506000600381905550436004819055506103a0604051908101604052806204028062ffffff168152602001620784be62ffffff168152602001620a926262ffffff168152602001620d3e8062ffffff168152602001620f980262ffffff1681526020016211a7c662ffffff168152602001621372e062ffffff168152602001621505fa62ffffff1681526020016216665262ffffff16815260200162179a5262ffffff1681526020016218a7da62ffffff1681526020016219930262ffffff168152602001621a623262ffffff168152602001621b14b262ffffff168152602001621bb0ca62ffffff168152602001621c394462ffffff168152602001621caf6462ffffff168152602001621d16c062ffffff168152602001621d6f2e62ffffff168152602001621dc38e62ffffff168152602001621e052e62ffffff168152602001621e450262ffffff168152602001621e809262ffffff168152602001621eb4b262ffffff168152602001621edd3a62ffffff168152602001621f0c8262ffffff168152602001621f281862ffffff168152602001621f6dd262ffffff168152602001621fccb862ffffff1681525092506103a06040519081016040528061010061ffff16815260200161012c61ffff16815260200161015c61ffff16815260200161019461ffff1681526020016101dc61ffff16815260200161022c61ffff16815260200161028461ffff1681526020016102f461ffff16815260200161037061ffff16815260200161040061ffff1681526020016104b061ffff16815260200161057861ffff16815260200161066061ffff16815260200161077061ffff1681526020016108ac61ffff168152602001610a1c61ffff168152602001610bd061ffff168152602001610dc861ffff16815260200161101461ffff1681526020016112c061ffff1681526020016115e061ffff16815260200161198861ffff168152602001611dc861ffff1681526020016122c061ffff16815260200161288861ffff168152602001612f4861ffff16815260200161372c61ffff1681526020016145ba61ffff168152602001615ee661ffff168152509150600090505b601d8110156200041857600780548060010182816200039a91906200047e565b9160005260206000209060020201600060408051908101604052808786601d81101515620003c457fe5b602002015162ffffff1681526020018686601d81101515620003e257fe5b602002015161ffff168152509091909150600082015181600001556020820151816001015550505080806001019150506200037a565b505050620004e5565b6103a060405190810160405280601d905b600062ffffff16815260200190600190039081620004325790505090565b6103a060405190810160405280601d905b600061ffff16815260200190600190039081620004615790505090565b815481835581811511620004ae57600202816002028360005260206000209182019101620004ad9190620004b3565b5b505050565b620004e291905b80821115620004de57600080820160009055600182016000905550600201620004ba565b5090565b90565b61113080620004f56000396000f3006060604052600436106100ba576000357c0100000000000000000000000000000000000000000000000000000000900463ffffffff168063274a533c146100bf5780632bcf8fc0146100e85780632fb2856b1461016a5780633447c2911461019357806344dfd7e8146101bc5780634d38b7ae146101e557806366612fda1461020e5780636742d3181461024c5780637b1450601461031657806381c6fa08146103a45780639547387314610412578063be26733c1461043b575b600080fd5b34156100ca57600080fd5b6100d2610450565b6040518082815260200191505060405180910390f35b34156100f357600080fd5b6101126004808035906020019091908035906020019091905050610456565b6040518084600019166000191681526020018381526020018273ffffffffffffffffffffffffffffffffffffffff1673ffffffffffffffffffffffffffffffffffffffff168152602001935050505060405180910390f35b341561017557600080fd5b61017d6104ad565b6040518082815260200191505060405180910390f35b341561019e57600080fd5b6101a66104b3565b6040518082815260200191505060405180910390f35b34156101c757600080fd5b6101cf6104b9565b6040518082815260200191505060405180910390f35b34156101f057600080fd5b6101f86104bf565b6040518082815260200191505060405180910390f35b341561021957600080fd5b61022f60048080359060200190919050506104c5565b604051808381526020018281526020019250505060405180910390f35b341561025757600080fd5b61027660048080359060200190919080359060200190919050506104f8565b604051808581526020018473ffffffffffffffffffffffffffffffffffffffff1673ffffffffffffffffffffffffffffffffffffffff168152602001836000191660001916815260200180602001828103825283818151815260200191508051906020019060200280838360005b838110156102ff5780820151818401526020810190506102e4565b505050509050019550505050505060405180910390f35b341561032157600080fd5b610352600480803590602001909190803590602001909190803590602001909190803590602001909190505061062e565b60405180806020018281038252838181518152602001915080516000925b818410156103935782849060200190602002015181526020019260010192610370565b925050509250505060405180910390f35b6104106004808035906020019091908035906020019091908035906020019082018035906020019080806020026020016040519081016040528093929190818152602001838360200280828437820191505050505050919080356000191690602001909190505061091d565b005b341561041d57600080fd5b610425610c40565b6040518082815260200191505060405180910390f35b341561044657600080fd5b61044e610c46565b005b60045481565b6008602052816000526040600020602052806000526040600020600091509150508060010154908060020154908060030160009054906101000a900473ffffffffffffffffffffffffffffffffffffffff16905083565b60025481565b60035481565b60055481565b60065481565b6007818154811015156104d457fe5b90600052602060002090600202016000915090508060000154908060010154905082565b6000806000610505610e9c565b60006105118787610cdb565b600860008881526020019081526020016000206000878152602001908152602001600020905080600201548160030160009054906101000a900473ffffffffffffffffffffffffffffffffffffffff168260010154836000018080548060200260200160405190810160405280929190818152602001828054801561061557602002820191906000526020600020906000905b82829054906101000a90047d010000000000000000000000000000000000000000000000000000000000027cffffffffffffffffffffffffffffffffffffffffffffffffffffffffff1916815260200190600301906020826002010492830192600103820291508084116105a45790505b5050505050905094509450945094505092959194509250565b610636610eb0565b60008060008061064889898989610d66565b8888121580156106585750868612155b151561066357600080fd5b60018787030160018a8a03010293508891505b878213151561078d578690505b85811315156107805782805480600101828161069f9190610ec4565b91600052602060002090600402016000600860008681526020019081526020016000206000858152602001908152602001600020909190915060008201816000019080546106ee929190610ef6565b5060018201548160010190600019169055600282015481600201556003820160009054906101000a900473ffffffffffffffffffffffffffffffffffffffff168160030160006101000a81548173ffffffffffffffffffffffffffffffffffffffff021916908373ffffffffffffffffffffffffffffffffffffffff1602179055505050508080600101915050610683565b8180600101925050610676565b82805480602002602001604051908101604052809291908181526020016000905b8282101561090b5783829060005260206000209060040201608060405190810160405290816000820180548060200260200160405190810160405280929190818152602001828054801561088157602002820191906000526020600020906000905b82829054906101000a90047d010000000000000000000000000000000000000000000000000000000000027cffffffffffffffffffffffffffffffffffffffffffffffffffffffffff1916815260200190600301906020826002010492830192600103820291508084116108105790505b50505050508152602001600182015460001916600019168152602001600282015481526020016003820160009054906101000a900473ffffffffffffffffffffffffffffffffffffffff1673ffffffffffffffffffffffffffffffffffffffff1673ffffffffffffffffffffffffffffffffffffffff1681525050815260200190600101906107ae565b50505050945050505050949350505050565b60008061092a8686610cdb565b600860008781526020019081526020016000206000868152602001908152602001600020915083826000019080519060200190610968929190610f56565b50828260010181600019169055503482600201819055507fb800b0f64c8c5a1befb7749179ea32fa0b662ec6554d3f998b7b9b706e3b43038686868633604051808681526020018581526020018060200184600019166000191681526020018373ffffffffffffffffffffffffffffffffffffffff1673ffffffffffffffffffffffffffffffffffffffff168152602001828103825285818151815260200191508051906020019060200280838360005b83811015610a34578082015181840152602081019050610a19565b50505050905001965050505050505060405180910390a1600073ffffffffffffffffffffffffffffffffffffffff168260030160009054906101000a900473ffffffffffffffffffffffffffffffffffffffff1673ffffffffffffffffffffffffffffffffffffffff1614610acd578160030160009054906101000a900473ffffffffffffffffffffffffffffffffffffffff16610af0565b6000809054906101000a900473ffffffffffffffffffffffffffffffffffffffff165b9050338260030160006101000a81548173ffffffffffffffffffffffffffffffffffffffff021916908373ffffffffffffffffffffffffffffffffffffffff1602179055508073ffffffffffffffffffffffffffffffffffffffff166108fc349081150290604051600060405180830381858888f193505050501515610b7557600080fd5b7f3e308ff159ce24591005d72455345b0d4286d901381d13a6f2f02f59242f8989818360030160009054906101000a900473ffffffffffffffffffffffffffffffffffffffff1634604051808473ffffffffffffffffffffffffffffffffffffffff1673ffffffffffffffffffffffffffffffffffffffff1681526020018373ffffffffffffffffffffffffffffffffffffffff1673ffffffffffffffffffffffffffffffffffffffff168152602001828152602001935050505060405180910390a1505050505050565b60015481565b6000809054906101000a900473ffffffffffffffffffffffffffffffffffffffff1673ffffffffffffffffffffffffffffffffffffffff163373ffffffffffffffffffffffffffffffffffffffff16141515610ca157600080fd5b6000809054906101000a900473ffffffffffffffffffffffffffffffffffffffff1673ffffffffffffffffffffffffffffffffffffffff16ff5b610ce3610db1565b507f5f071658964e2b3dcca6e045f74b25b56eaf32c5fcac3be93030daa0e3445712600554600654604051808381526020018281526020019250505060405180910390a16005548212158015610d3b57506006548213155b8015610d4957506005548112155b8015610d5757506006548113155b1515610d6257600080fd5b5050565b610d708484610cdb565b6005548212158015610d8457506006548213155b8015610d9257506005548112155b8015610da057506006548113155b1515610dab57600080fd5b50505050565b600080610dbc610dd3565b905080600003600581905550806006819055505090565b6000806000806004544303925060035491505b600780549050821015610e8457600782815481101515610e0257fe5b90600052602060002090600202019050828160000154101515610e45578160038190555080600101546001548403811515610e3957fe5b04600254019350610e96565b80600001546001819055508060010154600154826000015403811515610e6757fe5b046002600082825401925050819055508180600101925050610de6565b60078054905060038190555061100093505b50505090565b602060405190810160405280600081525090565b602060405190810160405280600081525090565b815481835581811511610ef157600402816004028360005260206000209182019101610ef0919061101f565b5b505050565b82805482825590600052602060002090600901600a90048101928215610f4557600052602060002091600901600a900482015b82811115610f44578254825591600101919060010190610f29565b5b509050610f529190611085565b5090565b82805482825590600052602060002090600901600a9004810192821561100e5791602002820160005b83821115610fdd57835183826101000a81548162ffffff02191690837d010000000000000000000000000000000000000000000000000000000000900402179055509260200192600301602081600201049283019260010302610f7f565b801561100c5782816101000a81549062ffffff0219169055600301602081600201049283019260010302610fdd565b505b50905061101b9190611085565b5090565b61108291905b8082111561107e576000808201600061103e91906110b7565b600182016000905560028201600090556003820160006101000a81549073ffffffffffffffffffffffffffffffffffffffff021916905550600401611025565b5090565b90565b6110b491905b808211156110b057600081816101000a81549062ffffff02191690555060010161108b565b5090565b90565b50805460008255600901600a9004906000526020600020908101906110dc91906110df565b50565b61110191905b808211156110fd5760008160009055506001016110e5565b5090565b905600a165627a7a72305820431662ffb43c524177c0ebcbaf7374f9d2c28a65d8bd1c4ec340545d767f2f590029",
  "source": "pragma solidity ^0.4.18;\r\nimport \"./UsingMortal.sol\";\r\nimport \"./UsingCanvasBoundaries.sol\";\r\n\r\ncontract Canvas is usingMortal, usingCanvasBoundaries {\r\n    struct Pixel {\r\n        bytes3[] color;\r\n        bytes32 signature;\r\n        uint floor_price;\r\n        address owner;\r\n    }\r\n\t\r\n    mapping(int => mapping(int => Pixel)) public pixels;\r\n    \r\n    event PixelSold(address old_owner, address new_owner, uint price);\r\n    event PixelPainted(int x, int y, bytes3[] new_color, bytes32 new_signature, address new_owner);\r\n    \r\n\tfunction Paint(int _x, int _y, bytes3[] _color, bytes32 _signature) public payable {\r\n\t\tcheckTwoCoordinates(_x, _y);\r\n\t\tPixel storage pixel = pixels[_x][_y];\r\n\t    //require(msg.value > pixel.floor_price);\r\n\t    pixel.color = _color;\r\n\t    pixel.signature = _signature;\r\n\t    pixel.floor_price = msg.value;\r\n\t    PixelPainted(_x, _y, _color, _signature, msg.sender);\r\n\t    address old_owner = pixel.owner == address(0) ? owner : pixel.owner; //nuevos pixeles son propiedad mia\r\n\t    pixel.owner = msg.sender;\r\n\t    old_owner.transfer(msg.value);\r\n\t    PixelSold(old_owner, pixel.owner, msg.value);\r\n\t}\r\n\t\r\n\tfunction GetPixel(int _x, int _y) public constant returns(uint, address, bytes32, bytes3[]) {\r\n\t\tcheckTwoCoordinates(_x, _y);\r\n\t\tvar p = pixels[_x][_y];\r\n\t\treturn (p.floor_price, p.owner, p.signature, p.color);\r\n\t}\r\n\t\r\n\tfunction GetPixels(int _min_x, int _max_x, int _min_y, int _max_y) public constant returns(Pixel[]) {\r\n\t\tcheckFourCoordinates(_min_x, _max_x, _min_y, _max_y);\r\n\t\trequire(_max_x >= _min_x && _max_y >= _min_y);\r\n\t\tvar dimensions = (_max_x - _min_x + 1) * (_max_y - _min_y + 1);\r\n\t\tPixel[] pixels_data;\r\n\t\tfor (int i = _min_x; i <= _max_x; i++)\r\n\t\t\tfor (int j = _min_y; j <= _max_y; j++)\r\n\t\t\t\tpixels_data.push(pixels[i][j]);\r\n\t\treturn pixels_data;\r\n\t}\r\n}",
  "sourcePath": "D:\\dev\\canvas\\contracts\\Canvas.sol",
  "compiler": {
    "name": "solc",
    "version": "0.4.18+commit.9cf6e910.Emscripten.clang"
  },
  "schemaVersion": "1.0.1",
  "updatedAt": "2017-12-30T22:51:20.108Z"
}