{
  "contractName": "Etherpixels",
  "abi": [
    {
      "constant": false,
      "inputs": [
        {
          "name": "_new_starting_price",
          "type": "uint256"
        }
      ],
      "name": "LowerStartingPrice",
      "outputs": [],
      "payable": false,
      "stateMutability": "nonpayable",
      "type": "function"
    },
    {
      "constant": true,
      "inputs": [],
      "name": "HalvingInfo",
      "outputs": [
        {
          "name": "genesis_block",
          "type": "uint256"
        },
        {
          "name": "halving_array",
          "type": "uint256[]"
        }
      ],
      "payable": false,
      "stateMutability": "view",
      "type": "function"
    },
    {
      "constant": true,
      "inputs": [],
      "name": "StartingPrice",
      "outputs": [
        {
          "name": "price",
          "type": "uint256"
        }
      ],
      "payable": false,
      "stateMutability": "view",
      "type": "function"
    },
    {
      "constant": true,
      "inputs": [],
      "name": "contract_owner",
      "outputs": [
        {
          "name": "",
          "type": "address"
        }
      ],
      "payable": false,
      "stateMutability": "view",
      "type": "function"
    },
    {
      "constant": false,
      "inputs": [
        {
          "name": "_amount",
          "type": "uint256"
        }
      ],
      "name": "Withdraw",
      "outputs": [],
      "payable": false,
      "stateMutability": "nonpayable",
      "type": "function"
    },
    {
      "constant": false,
      "inputs": [
        {
          "name": "_batch_size",
          "type": "uint8"
        },
        {
          "name": "_index",
          "type": "uint256[]"
        },
        {
          "name": "_color",
          "type": "bytes3[]"
        },
        {
          "name": "_paid",
          "type": "uint256[]"
        }
      ],
      "name": "BatchPaint",
      "outputs": [],
      "payable": true,
      "stateMutability": "payable",
      "type": "function"
    },
    {
      "constant": false,
      "inputs": [
        {
          "name": "_new_owner",
          "type": "address"
        }
      ],
      "name": "TransferOwnership",
      "outputs": [],
      "payable": false,
      "stateMutability": "nonpayable",
      "type": "function"
    },
    {
      "constant": false,
      "inputs": [
        {
          "name": "_index",
          "type": "uint256"
        },
        {
          "name": "_color",
          "type": "bytes3"
        }
      ],
      "name": "Paint",
      "outputs": [],
      "payable": true,
      "stateMutability": "payable",
      "type": "function"
    },
    {
      "anonymous": false,
      "inputs": [
        {
          "indexed": false,
          "name": "i",
          "type": "uint256"
        },
        {
          "indexed": false,
          "name": "new_owner",
          "type": "address"
        },
        {
          "indexed": false,
          "name": "old_owner",
          "type": "address"
        },
        {
          "indexed": false,
          "name": "price",
          "type": "uint256"
        },
        {
          "indexed": false,
          "name": "new_color",
          "type": "bytes3"
        }
      ],
      "name": "PixelPainted",
      "type": "event"
    },
    {
      "anonymous": false,
      "inputs": [
        {
          "indexed": false,
          "name": "i",
          "type": "uint256"
        },
        {
          "indexed": false,
          "name": "new_owner",
          "type": "address"
        },
        {
          "indexed": false,
          "name": "price",
          "type": "uint256"
        },
        {
          "indexed": false,
          "name": "new_color",
          "type": "bytes3"
        }
      ],
      "name": "PixelUnavailable",
      "type": "event"
    }
  ],
  "bytecode": "0x6060604081815265048c2739500060055560008054600160a060020a03191633600160a060020a0316179055436001819055624010016002556232d00101600355519081016040908152600154614000810183526201400081016020840152620bc000019082015261007590600490600361007b565b506100e3565b8280548282559060005260206000209081019282156100b6579160200282015b828111156100b657825182559160200191906001019061009b565b506100c29291506100c6565b5090565b6100e091905b808211156100c257600081556001016100cc565b90565b610903806100f26000396000f30060606040526004361061008d5763ffffffff7c0100000000000000000000000000000000000000000000000000000000600035041663047ba64181146100925780631594060a146100aa57806325cfa56614610117578063384f58eb1461013c5780635b6b431d1461016b5780639cccb27214610181578063cfaaa2661461024d578063f0bf1aea1461026c575b600080fd5b341561009d57600080fd5b6100a8600435610284565b005b34156100b557600080fd5b6100bd6102b2565b60405182815260406020820181815290820183818151815260200191508051906020019060200280838360005b838110156101025780820151838201526020016100ea565b50505050905001935050505060405180910390f35b341561012257600080fd5b61012a61031b565b60405190815260200160405180910390f35b341561014757600080fd5b61014f610321565b604051600160a060020a03909116815260200160405180910390f35b341561017657600080fd5b6100a8600435610330565b6100a86004803560ff1690604460248035908101908301358060208082020160405190810160405280939291908181526020018383602002808284378201915050505050509190803590602001908201803590602001908080602002602001604051908101604052809392919081815260200183836020028082843782019150505050505091908035906020019082018035906020019080806020026020016040519081016040528093929190818152602001838360200280828437509496506103a095505050505050565b341561025857600080fd5b6100a8600160a060020a036004351661048d565b6100a8600435600160e860020a0319602435166104ec565b60005433600160a060020a0390811691161461029f57600080fd5b60055481106102ad57600080fd5b600555565b60006102bc6108c5565b60015460048080548060200260200160405190810160405280929190818152602001828054801561030c57602002820191906000526020600020905b8154815260200190600101908083116102f8575b50505050509050915091509091565b60055490565b600054600160a060020a031681565b60005433600160a060020a0390811691161461034b57600080fd5b30600160a060020a03163181111561036a5750600160a060020a033016315b600054600160a060020a031681156108fc0282604051600060405180830381858888f19350505050151561039d57600080fd5b50565b346000806103ac61050f565b9150600090505b8660ff168160ff16101561048457838160ff16815181106103d057fe5b906020019060200201518310158015610401575081868260ff16815181106103f457fe5b9060200190602002015111155b151561040c57600080fd5b61045f868260ff168151811061041e57fe5b90602001906020020151868360ff168151811061043757fe5b90602001906020020151868460ff168151811061045057fe5b90602001906020020151610612565b838160ff168151811061046e57fe5b90602001906020020151909203916001016103b3565b50505050505050565b60005433600160a060020a039081169116146104a857600080fd5b600160a060020a03811615156104bd57600080fd5b6000805473ffffffffffffffffffffffffffffffffffffffff1916600160a060020a0392909216919091179055565b6104f461050f565b82111561050057600080fd5b61050b828234610612565b5050565b60008060035443111561052657600254915061060e565b600154430390506004600281548110151561053d57fe5b9060005260206000209001544311156105745760015460048054600290811061056257fe5b90600052602060002090015403610576565b805b60048054600190811061058557fe5b9060005260206000209001544311156105bd57600154600460018154811015156105ab57fe5b906000526020600020900154036105bf565b815b6004805460009081106105ce57fe5b906000526020600020900154431115610605576001546004805460009081106105f357fe5b90600052602060002090015403610607565b825b8301010191505b5090565b60008381526006602052604081208054909190819033600160a060020a039081166c010000000000000000000000009092041614156106dc5782547f8e9a28f0098c6c110a728df7c86a6e828976c9229df9b41ffaa12b3b8cb58cd1908790339081906bffffffffffffffffffffffff1689604051948552600160a060020a039384166020860152919092166040808501919091526bffffffffffffffffffffffff9092166060840152600160e860020a031916608083015260a0909101905180910390a16108bd565b82546bffffffffffffffffffffffff16156107065782546bffffffffffffffffffffffff1661070a565b6005545b9150600a600b830204841015610780577f455700bdaca06953a01ba9e5570c4b353cf57478ee2efd9a0b30cb12ac5c5a7986338488604051938452600160a060020a039092166020840152604080840191909152600160e860020a031990911660608301526080909101905180910390a16108bd565b81600202841115610792578160020293505b82546bffffffffffffffffffffffff19166bffffffffffffffffffffffff858116919091178085551684146107c657600080fd5b5081546bffffffffffffffffffffffff8082166c01000000000000000000000000600160a060020a033381811683029390931780885591909404909316927f8e9a28f0098c6c110a728df7c86a6e828976c9229df9b41ffaa12b3b8cb58cd19289929185911689604051948552600160a060020a039384166020860152919092166040808501919091526bffffffffffffffffffffffff9092166060840152600160e860020a031916608083015260a0909101905180910390a1600160a060020a038116156108bd57600160a060020a0381166064606286020480156108fc0290604051600060405180830381858888f150505050505b505050505050565b602060405190810160405260008152905600a165627a7a7230582057b58ad2db7476897e8bb22868d1b9f60e5cf99d49fdcd3dc5efd5a9318078550029",
  "source": "pragma solidity ^0.4.18;\r\n\r\ncontract usingOwnership {\r\n  address public contract_owner;\r\n\r\n  modifier onlyOwner() {\r\n    require(msg.sender == contract_owner);\r\n    _;\r\n  }\r\n\r\n  function usingOwnership() internal {\r\n    contract_owner = msg.sender;\r\n  }\r\n\r\n  function Withdraw(uint _amount) onlyOwner public {\r\n    if (_amount > this.balance)\r\n      _amount = this.balance;\r\n    contract_owner.transfer(_amount);\r\n  }\r\n\r\n  function TransferOwnership(address _new_owner) onlyOwner public {\r\n    require(_new_owner != address(0));\r\n    contract_owner = _new_owner;\r\n  }\r\n}\r\n\r\ncontract usingCanvasBoundaries {\r\n  uint private g_block;\r\n  uint private max_max_index;\r\n  uint private max_block_number;\r\n  uint[] private halving;\r\n   \r\n  function usingCanvasBoundaries() internal {\r\n    g_block = block.number;\r\n    max_max_index = 4198401;\r\n    max_block_number = g_block + 3330049;\r\n    halving = [g_block + 16384, g_block + 81920, g_block + 770048];\r\n  }\r\n\r\n  function max_index() internal view returns(uint m_index) {\r\n    if (block.number > max_block_number)\r\n      return max_max_index;\r\n    uint delta = block.number - g_block;\r\n    return delta +\r\n    ((block.number <= halving[0]) ? delta : halving[0] - g_block) +\r\n    ((block.number <= halving[1]) ? delta : halving[1] - g_block) +\r\n    ((block.number <= halving[2]) ? delta : halving[2] - g_block);\r\n  }\r\n\r\n  function HalvingInfo() public view returns(uint genesis_block, uint[] halving_array) {\r\n    return (g_block, halving);\r\n  }\r\n}\r\n\r\ncontract Etherpixels is usingOwnership, usingCanvasBoundaries {\r\n  uint private starting_price = 5000000000000; /* 5000 gwei */\r\n\r\n  /* packed to 32 bytes */\r\n  struct Pixel {\r\n    uint96 price;\r\n    address owner;\r\n  }\r\n  \r\n  mapping(uint => Pixel) private pixels;\r\n\r\n  event PixelPainted(uint i, address new_owner, address old_owner, uint price, bytes3 new_color);\r\n  event PixelUnavailable(uint i, address new_owner, uint price, bytes3 new_color);\r\n  \r\n  function Paint(uint _index, bytes3 _color) public payable {\r\n    require(_index <= max_index());\r\n    paint_pixel(_index, _color, msg.value);\r\n  }\r\n\r\n  function BatchPaint(uint8 _batch_size, uint[] _index, bytes3[] _color, uint[] _paid) public payable {\r\n    uint remaining = msg.value;\r\n    uint m_i = max_index();\r\n    for(uint8 i = 0; i < _batch_size; i++) {\r\n      require(remaining >= _paid[i] && _index[i] <= m_i);\r\n      paint_pixel(_index[i], _color[i], _paid[i]);\r\n      remaining -= _paid[i];\r\n    }\r\n  }\r\n\r\n  function StartingPrice() public view returns(uint price) {\r\n    return starting_price;\r\n  }\r\n\r\n  function LowerStartingPrice(uint _new_starting_price) onlyOwner public {\r\n    require(_new_starting_price < starting_price);\r\n    starting_price = _new_starting_price;\r\n  }\r\n  \r\n  function paint_pixel(uint _index, bytes3 _color, uint _paid) private {\r\n    Pixel storage p = pixels[_index];\r\n    if (msg.sender == p.owner) {\r\n      PixelPainted(_index, msg.sender, msg.sender, p.price, _color);\r\n    }\r\n    else {\r\n      uint current_price = p.price == 0 ? starting_price : uint(p.price);\r\n      if (_paid < current_price * 11 / 10)\r\n        PixelUnavailable(_index, msg.sender, current_price, _color);\r\n      else {\r\n        if (_paid > current_price * 2)\r\n          _paid = current_price * 2;\r\n        p.price = uint96(_paid);\r\n        require(p.price == _paid); /* casting guard */ \r\n        address old_owner = p.owner;\r\n        p.owner = msg.sender;\r\n        PixelPainted(_index, msg.sender, old_owner, p.price, _color);\r\n        if (old_owner != address(0))\r\n          old_owner.send(_paid * 98 / 100); /* not using transfer to avoid old_owner locking pixel by buying it from a contract that reverts when receiving funds */\r\n      }\r\n    }\r\n  }\r\n}",
  "sourcePath": "D:\\dev\\canvas\\contracts\\Etherpixels.sol",
  "compiler": {
    "name": "solc",
    "version": "0.4.18+commit.9cf6e910.Emscripten.clang"
  },
  "schemaVersion": "1.0.1",
  "updatedAt": "2018-03-11T18:05:50.595Z"
}